{
  "_format": "hh-sol-artifact-1",
  "contractName": "BadgerCore",
  "sourceName": "contracts/BadgerCore.sol",
  "abi": [
    {
      "inputs": [
        {
          "internalType": "string",
          "name": "_baseUri",
          "type": "string"
        }
      ],
      "stateMutability": "nonpayable",
      "type": "constructor"
    },
    {
      "inputs": [],
      "name": "TransferDisabled",
      "type": "error"
    },
    {
      "anonymous": false,
      "inputs": [
        {
          "indexed": true,
          "internalType": "address",
          "name": "account",
          "type": "address"
        },
        {
          "indexed": true,
          "internalType": "address",
          "name": "operator",
          "type": "address"
        },
        {
          "indexed": false,
          "internalType": "bool",
          "name": "approved",
          "type": "bool"
        }
      ],
      "name": "ApprovalForAll",
      "type": "event"
    },
    {
      "anonymous": false,
      "inputs": [
        {
          "indexed": true,
          "internalType": "address",
          "name": "previousOwner",
          "type": "address"
        },
        {
          "indexed": true,
          "internalType": "address",
          "name": "newOwner",
          "type": "address"
        }
      ],
      "name": "OwnershipTransferred",
      "type": "event"
    },
    {
      "anonymous": false,
      "inputs": [
        {
          "indexed": false,
          "internalType": "uint256",
          "name": "tokenId",
          "type": "uint256"
        },
        {
          "indexed": false,
          "internalType": "string",
          "name": "uri",
          "type": "string"
        }
      ],
      "name": "TokenUriUpdated",
      "type": "event"
    },
    {
      "anonymous": false,
      "inputs": [
        {
          "indexed": true,
          "internalType": "address",
          "name": "operator",
          "type": "address"
        },
        {
          "indexed": true,
          "internalType": "address",
          "name": "from",
          "type": "address"
        },
        {
          "indexed": true,
          "internalType": "address",
          "name": "to",
          "type": "address"
        },
        {
          "indexed": false,
          "internalType": "uint256[]",
          "name": "ids",
          "type": "uint256[]"
        },
        {
          "indexed": false,
          "internalType": "uint256[]",
          "name": "values",
          "type": "uint256[]"
        }
      ],
      "name": "TransferBatch",
      "type": "event"
    },
    {
      "anonymous": false,
      "inputs": [
        {
          "indexed": true,
          "internalType": "address",
          "name": "operator",
          "type": "address"
        },
        {
          "indexed": true,
          "internalType": "address",
          "name": "from",
          "type": "address"
        },
        {
          "indexed": true,
          "internalType": "address",
          "name": "to",
          "type": "address"
        },
        {
          "indexed": false,
          "internalType": "uint256",
          "name": "id",
          "type": "uint256"
        },
        {
          "indexed": false,
          "internalType": "uint256",
          "name": "value",
          "type": "uint256"
        }
      ],
      "name": "TransferSingle",
      "type": "event"
    },
    {
      "anonymous": false,
      "inputs": [
        {
          "indexed": false,
          "internalType": "string",
          "name": "value",
          "type": "string"
        },
        {
          "indexed": true,
          "internalType": "uint256",
          "name": "id",
          "type": "uint256"
        }
      ],
      "name": "URI",
      "type": "event"
    },
    {
      "inputs": [
        {
          "internalType": "address",
          "name": "account",
          "type": "address"
        },
        {
          "internalType": "uint256",
          "name": "id",
          "type": "uint256"
        }
      ],
      "name": "balanceOf",
      "outputs": [
        {
          "internalType": "uint256",
          "name": "",
          "type": "uint256"
        }
      ],
      "stateMutability": "view",
      "type": "function"
    },
    {
      "inputs": [
        {
          "internalType": "address[]",
          "name": "accounts",
          "type": "address[]"
        },
        {
          "internalType": "uint256[]",
          "name": "ids",
          "type": "uint256[]"
        }
      ],
      "name": "balanceOfBatch",
      "outputs": [
        {
          "internalType": "uint256[]",
          "name": "",
          "type": "uint256[]"
        }
      ],
      "stateMutability": "view",
      "type": "function"
    },
    {
      "inputs": [
        {
          "internalType": "uint256",
          "name": "id",
          "type": "uint256"
        }
      ],
      "name": "exists",
      "outputs": [
        {
          "internalType": "bool",
          "name": "",
          "type": "bool"
        }
      ],
      "stateMutability": "view",
      "type": "function"
    },
    {
      "inputs": [
        {
          "internalType": "address",
          "name": "account",
          "type": "address"
        },
        {
          "internalType": "address",
          "name": "operator",
          "type": "address"
        }
      ],
      "name": "isApprovedForAll",
      "outputs": [
        {
          "internalType": "bool",
          "name": "",
          "type": "bool"
        }
      ],
      "stateMutability": "view",
      "type": "function"
    },
    {
      "inputs": [],
      "name": "owner",
      "outputs": [
        {
          "internalType": "address",
          "name": "",
          "type": "address"
        }
      ],
      "stateMutability": "view",
      "type": "function"
    },
    {
      "inputs": [],
      "name": "renounceOwnership",
      "outputs": [],
      "stateMutability": "nonpayable",
      "type": "function"
    },
    {
      "inputs": [
        {
          "internalType": "address",
          "name": "from",
          "type": "address"
        },
        {
          "internalType": "address",
          "name": "to",
          "type": "address"
        },
        {
          "internalType": "uint256[]",
          "name": "ids",
          "type": "uint256[]"
        },
        {
          "internalType": "uint256[]",
          "name": "amounts",
          "type": "uint256[]"
        },
        {
          "internalType": "bytes",
          "name": "data",
          "type": "bytes"
        }
      ],
      "name": "safeBatchTransferFrom",
      "outputs": [],
      "stateMutability": "nonpayable",
      "type": "function"
    },
    {
      "inputs": [
        {
          "internalType": "address",
          "name": "from",
          "type": "address"
        },
        {
          "internalType": "address",
          "name": "to",
          "type": "address"
        },
        {
          "internalType": "uint256",
          "name": "id",
          "type": "uint256"
        },
        {
          "internalType": "uint256",
          "name": "amount",
          "type": "uint256"
        },
        {
          "internalType": "bytes",
          "name": "data",
          "type": "bytes"
        }
      ],
      "name": "safeTransferFrom",
      "outputs": [],
      "stateMutability": "nonpayable",
      "type": "function"
    },
    {
      "inputs": [
        {
          "internalType": "address",
          "name": "",
          "type": "address"
        },
        {
          "internalType": "bool",
          "name": "",
          "type": "bool"
        }
      ],
      "name": "setApprovalForAll",
      "outputs": [],
      "stateMutability": "nonpayable",
      "type": "function"
    },
    {
      "inputs": [
        {
          "internalType": "string",
          "name": "baseUri",
          "type": "string"
        }
      ],
      "name": "setBaseUri",
      "outputs": [],
      "stateMutability": "nonpayable",
      "type": "function"
    },
    {
      "inputs": [
        {
          "internalType": "uint256",
          "name": "tokenId",
          "type": "uint256"
        },
        {
          "internalType": "string",
          "name": "newUri",
          "type": "string"
        }
      ],
      "name": "setUri",
      "outputs": [],
      "stateMutability": "nonpayable",
      "type": "function"
    },
    {
      "inputs": [
        {
          "internalType": "bytes4",
          "name": "interfaceId",
          "type": "bytes4"
        }
      ],
      "name": "supportsInterface",
      "outputs": [
        {
          "internalType": "bool",
          "name": "",
          "type": "bool"
        }
      ],
      "stateMutability": "view",
      "type": "function"
    },
    {
      "inputs": [
        {
          "internalType": "uint256",
          "name": "",
          "type": "uint256"
        }
      ],
      "name": "tokenUris",
      "outputs": [
        {
          "internalType": "string",
          "name": "",
          "type": "string"
        }
      ],
      "stateMutability": "view",
      "type": "function"
    },
    {
      "inputs": [
        {
          "internalType": "uint256",
          "name": "id",
          "type": "uint256"
        }
      ],
      "name": "totalSupply",
      "outputs": [
        {
          "internalType": "uint256",
          "name": "",
          "type": "uint256"
        }
      ],
      "stateMutability": "view",
      "type": "function"
    },
    {
      "inputs": [
        {
          "internalType": "address",
          "name": "newOwner",
          "type": "address"
        }
      ],
      "name": "transferOwnership",
      "outputs": [],
      "stateMutability": "nonpayable",
      "type": "function"
    },
    {
      "inputs": [
        {
          "internalType": "uint256",
          "name": "tokenId",
          "type": "uint256"
        }
      ],
      "name": "uri",
      "outputs": [
        {
          "internalType": "string",
          "name": "",
          "type": "string"
        }
      ],
      "stateMutability": "view",
      "type": "function"
    }
  ],
  "bytecode": "0x60806040523480156200001157600080fd5b50604051620037f7380380620037f78339818101604052810190620000379190620002e7565b8062000049816200007160201b60201c565b506200006a6200005e6200008660201b60201c565b6200008e60201b60201c565b506200066a565b806002908162000082919062000583565b5050565b600033905090565b6000600460009054906101000a900473ffffffffffffffffffffffffffffffffffffffff16905081600460006101000a81548173ffffffffffffffffffffffffffffffffffffffff021916908373ffffffffffffffffffffffffffffffffffffffff1602179055508173ffffffffffffffffffffffffffffffffffffffff168173ffffffffffffffffffffffffffffffffffffffff167f8be0079c531659141344cd1fd0a4f28419497f9722a3daafe3b4186f6b6457e060405160405180910390a35050565b6000604051905090565b600080fd5b600080fd5b600080fd5b600080fd5b6000601f19601f8301169050919050565b7f4e487b7100000000000000000000000000000000000000000000000000000000600052604160045260246000fd5b620001bd8262000172565b810181811067ffffffffffffffff82111715620001df57620001de62000183565b5b80604052505050565b6000620001f462000154565b9050620002028282620001b2565b919050565b600067ffffffffffffffff82111562000225576200022462000183565b5b620002308262000172565b9050602081019050919050565b60005b838110156200025d57808201518184015260208101905062000240565b60008484015250505050565b6000620002806200027a8462000207565b620001e8565b9050828152602081018484840111156200029f576200029e6200016d565b5b620002ac8482856200023d565b509392505050565b600082601f830112620002cc57620002cb62000168565b5b8151620002de84826020860162000269565b91505092915050565b6000602082840312156200030057620002ff6200015e565b5b600082015167ffffffffffffffff81111562000321576200032062000163565b5b6200032f84828501620002b4565b91505092915050565b600081519050919050565b7f4e487b7100000000000000000000000000000000000000000000000000000000600052602260045260246000fd5b600060028204905060018216806200038b57607f821691505b602082108103620003a157620003a062000343565b5b50919050565b60008190508160005260206000209050919050565b60006020601f8301049050919050565b600082821b905092915050565b6000600883026200040b7fffffffffffffffffffffffffffffffffffffffffffffffffffffffffffffffff82620003cc565b620004178683620003cc565b95508019841693508086168417925050509392505050565b6000819050919050565b6000819050919050565b6000620004646200045e62000458846200042f565b62000439565b6200042f565b9050919050565b6000819050919050565b620004808362000443565b620004986200048f826200046b565b848454620003d9565b825550505050565b600090565b620004af620004a0565b620004bc81848462000475565b505050565b5b81811015620004e457620004d8600082620004a5565b600181019050620004c2565b5050565b601f8211156200053357620004fd81620003a7565b6200050884620003bc565b8101602085101562000518578190505b620005306200052785620003bc565b830182620004c1565b50505b505050565b600082821c905092915050565b6000620005586000198460080262000538565b1980831691505092915050565b600062000573838362000545565b9150826002028217905092915050565b6200058e8262000338565b67ffffffffffffffff811115620005aa57620005a962000183565b5b620005b6825462000372565b620005c3828285620004e8565b600060209050601f831160018114620005fb5760008415620005e6578287015190505b620005f2858262000565565b86555062000662565b601f1984166200060b86620003a7565b60005b8281101562000635578489015182556001820191506020850194506020810190506200060e565b8683101562000655578489015162000651601f89168262000545565b8355505b6001600288020188555050505b505050505050565b61317d806200067a6000396000f3fe608060405234801561001057600080fd5b50600436106100ff5760003560e01c80638da5cb5b11610097578063bd85b03911610066578063bd85b039146102bc578063e985e9c5146102ec578063f242432a1461031c578063f2fde38b14610338576100ff565b80638da5cb5b14610236578063a0bcfc7f14610254578063a22cb46514610270578063ae882b651461028c576100ff565b80634e1273f4116100d35780634e1273f4146101b05780634f558e79146101e0578063715018a614610210578063782f08ae1461021a576100ff565b8062fdd58e1461010457806301ffc9a7146101345780630e89341c146101645780632eb2c2d614610194575b600080fd5b61011e60048036038101906101199190611a19565b610354565b60405161012b9190611a68565b60405180910390f35b61014e60048036038101906101499190611adb565b61041c565b60405161015b9190611b23565b60405180910390f35b61017e60048036038101906101799190611b3e565b6104fe565b60405161018b9190611bfb565b60405180910390f35b6101ae60048036038101906101a99190611e1a565b610549565b005b6101ca60048036038101906101c59190611fac565b6105ea565b6040516101d791906120e2565b60405180910390f35b6101fa60048036038101906101f59190611b3e565b610703565b6040516102079190611b23565b60405180910390f35b610218610717565b005b610234600480360381019061022f91906121a5565b61072b565b005b61023e610791565b60405161024b9190612210565b60405180910390f35b61026e6004803603810190610269919061222b565b6107bb565b005b61028a600480360381019061028591906122a0565b6107cf565b005b6102a660048036038101906102a19190611b3e565b610801565b6040516102b39190611bfb565b60405180910390f35b6102d660048036038101906102d19190611b3e565b6108a1565b6040516102e39190611a68565b60405180910390f35b610306600480360381019061030191906122e0565b6108be565b6040516103139190611b23565b60405180910390f35b61033660048036038101906103319190612320565b610952565b005b610352600480360381019061034d91906123b7565b6109f3565b005b60008073ffffffffffffffffffffffffffffffffffffffff168373ffffffffffffffffffffffffffffffffffffffff16036103c4576040517f08c379a00000000000000000000000000000000000000000000000000000000081526004016103bb90612456565b60405180910390fd5b60008083815260200190815260200160002060008473ffffffffffffffffffffffffffffffffffffffff1673ffffffffffffffffffffffffffffffffffffffff16815260200190815260200160002054905092915050565b60007fd9b67a26000000000000000000000000000000000000000000000000000000007bffffffffffffffffffffffffffffffffffffffffffffffffffffffff1916827bffffffffffffffffffffffffffffffffffffffffffffffffffffffff191614806104e757507f0e89341c000000000000000000000000000000000000000000000000000000007bffffffffffffffffffffffffffffffffffffffffffffffffffffffff1916827bffffffffffffffffffffffffffffffffffffffffffffffffffffffff1916145b806104f757506104f682610a76565b5b9050919050565b6060600061050b83610ae0565b905080600560008581526020019081526020016000206040516020016105329291906125aa565b604051602081830303815290604052915050919050565b610551610b74565b73ffffffffffffffffffffffffffffffffffffffff168573ffffffffffffffffffffffffffffffffffffffff161480610597575061059685610591610b74565b6108be565b5b6105d6576040517f08c379a00000000000000000000000000000000000000000000000000000000081526004016105cd90612640565b60405180910390fd5b6105e38585858585610b7c565b5050505050565b60608151835114610630576040517f08c379a0000000000000000000000000000000000000000000000000000000008152600401610627906126d2565b60405180910390fd5b6000835167ffffffffffffffff81111561064d5761064c611c22565b5b60405190808252806020026020018201604052801561067b5781602001602082028036833780820191505090505b50905060005b84518110156106f8576106c88582815181106106a05761069f6126f2565b5b60200260200101518583815181106106bb576106ba6126f2565b5b6020026020010151610354565b8282815181106106db576106da6126f2565b5b602002602001018181525050806106f190612750565b9050610681565b508091505092915050565b60008061070f836108a1565b119050919050565b61071f610e9d565b6107296000610f1b565b565b610733610e9d565b80600560008481526020019081526020016000209081610753919061292f565b507f652c9498726ae446882619d79306dfe2594d5d5a008eaad0a720ee55ebf8e8b88282604051610785929190612a01565b60405180910390a15050565b6000600460009054906101000a900473ffffffffffffffffffffffffffffffffffffffff16905090565b6107c3610e9d565b6107cc81610fe1565b50565b6040517fa24e573d00000000000000000000000000000000000000000000000000000000815260040160405180910390fd5b60056020528060005260406000206000915090508054610820906124e1565b80601f016020809104026020016040519081016040528092919081815260200182805461084c906124e1565b80156108995780601f1061086e57610100808354040283529160200191610899565b820191906000526020600020905b81548152906001019060200180831161087c57829003601f168201915b505050505081565b600060036000838152602001908152602001600020549050919050565b6000600160008473ffffffffffffffffffffffffffffffffffffffff1673ffffffffffffffffffffffffffffffffffffffff16815260200190815260200160002060008373ffffffffffffffffffffffffffffffffffffffff1673ffffffffffffffffffffffffffffffffffffffff16815260200190815260200160002060009054906101000a900460ff16905092915050565b61095a610b74565b73ffffffffffffffffffffffffffffffffffffffff168573ffffffffffffffffffffffffffffffffffffffff1614806109a0575061099f8561099a610b74565b6108be565b5b6109df576040517f08c379a00000000000000000000000000000000000000000000000000000000081526004016109d690612640565b60405180910390fd5b6109ec8585858585610ff4565b5050505050565b6109fb610e9d565b600073ffffffffffffffffffffffffffffffffffffffff168173ffffffffffffffffffffffffffffffffffffffff1603610a6a576040517f08c379a0000000000000000000000000000000000000000000000000000000008152600401610a6190612aa3565b60405180910390fd5b610a7381610f1b565b50565b60007f01ffc9a7000000000000000000000000000000000000000000000000000000007bffffffffffffffffffffffffffffffffffffffffffffffffffffffff1916827bffffffffffffffffffffffffffffffffffffffffffffffffffffffff1916149050919050565b606060028054610aef906124e1565b80601f0160208091040260200160405190810160405280929190818152602001828054610b1b906124e1565b8015610b685780601f10610b3d57610100808354040283529160200191610b68565b820191906000526020600020905b815481529060010190602001808311610b4b57829003601f168201915b50505050509050919050565b600033905090565b8151835114610bc0576040517f08c379a0000000000000000000000000000000000000000000000000000000008152600401610bb790612b35565b60405180910390fd5b600073ffffffffffffffffffffffffffffffffffffffff168473ffffffffffffffffffffffffffffffffffffffff1603610c2f576040517f08c379a0000000000000000000000000000000000000000000000000000000008152600401610c2690612bc7565b60405180910390fd5b6000610c39610b74565b9050610c4981878787878761128f565b60005b8451811015610dfa576000858281518110610c6a57610c696126f2565b5b602002602001015190506000858381518110610c8957610c886126f2565b5b60200260200101519050600080600084815260200190815260200160002060008b73ffffffffffffffffffffffffffffffffffffffff1673ffffffffffffffffffffffffffffffffffffffff16815260200190815260200160002054905081811015610d2a576040517f08c379a0000000000000000000000000000000000000000000000000000000008152600401610d2190612c59565b60405180910390fd5b81810360008085815260200190815260200160002060008c73ffffffffffffffffffffffffffffffffffffffff1673ffffffffffffffffffffffffffffffffffffffff168152602001908152602001600020819055508160008085815260200190815260200160002060008b73ffffffffffffffffffffffffffffffffffffffff1673ffffffffffffffffffffffffffffffffffffffff1681526020019081526020016000206000828254610ddf9190612c79565b9250508190555050505080610df390612750565b9050610c4c565b508473ffffffffffffffffffffffffffffffffffffffff168673ffffffffffffffffffffffffffffffffffffffff168273ffffffffffffffffffffffffffffffffffffffff167f4a39dc06d4c0dbc64b70af90fd698a233a518aa5d07e595d983b8c0526c8f7fb8787604051610e71929190612cad565b60405180910390a4610e87818787878787611346565b610e9581878787878761134e565b505050505050565b610ea5610b74565b73ffffffffffffffffffffffffffffffffffffffff16610ec3610791565b73ffffffffffffffffffffffffffffffffffffffff1614610f19576040517f08c379a0000000000000000000000000000000000000000000000000000000008152600401610f1090612d30565b60405180910390fd5b565b6000600460009054906101000a900473ffffffffffffffffffffffffffffffffffffffff16905081600460006101000a81548173ffffffffffffffffffffffffffffffffffffffff021916908373ffffffffffffffffffffffffffffffffffffffff1602179055508173ffffffffffffffffffffffffffffffffffffffff168173ffffffffffffffffffffffffffffffffffffffff167f8be0079c531659141344cd1fd0a4f28419497f9722a3daafe3b4186f6b6457e060405160405180910390a35050565b8060029081610ff0919061292f565b5050565b600073ffffffffffffffffffffffffffffffffffffffff168473ffffffffffffffffffffffffffffffffffffffff1603611063576040517f08c379a000000000000000000000000000000000000000000000000000000000815260040161105a90612bc7565b60405180910390fd5b600061106d610b74565b9050600061107a85611525565b9050600061108785611525565b905061109783898985858961128f565b600080600088815260200190815260200160002060008a73ffffffffffffffffffffffffffffffffffffffff1673ffffffffffffffffffffffffffffffffffffffff1681526020019081526020016000205490508581101561112e576040517f08c379a000000000000000000000000000000000000000000000000000000000815260040161112590612c59565b60405180910390fd5b85810360008089815260200190815260200160002060008b73ffffffffffffffffffffffffffffffffffffffff1673ffffffffffffffffffffffffffffffffffffffff168152602001908152602001600020819055508560008089815260200190815260200160002060008a73ffffffffffffffffffffffffffffffffffffffff1673ffffffffffffffffffffffffffffffffffffffff16815260200190815260200160002060008282546111e39190612c79565b925050819055508773ffffffffffffffffffffffffffffffffffffffff168973ffffffffffffffffffffffffffffffffffffffff168573ffffffffffffffffffffffffffffffffffffffff167fc3d58168c5ae7397731d063d5bbf3d657854427343f4c083240f7aacaa2d0f628a8a604051611260929190612d50565b60405180910390a4611276848a8a86868a611346565b611284848a8a8a8a8a61159f565b505050505050505050565b600073ffffffffffffffffffffffffffffffffffffffff168473ffffffffffffffffffffffffffffffffffffffff16141580156112f95750600073ffffffffffffffffffffffffffffffffffffffff168573ffffffffffffffffffffffffffffffffffffffff1614155b15611330576040517fa24e573d00000000000000000000000000000000000000000000000000000000815260040160405180910390fd5b61133e868686868686611776565b505050505050565b505050505050565b61136d8473ffffffffffffffffffffffffffffffffffffffff16611946565b1561151d578373ffffffffffffffffffffffffffffffffffffffff1663bc197c8187878686866040518663ffffffff1660e01b81526004016113b3959493929190612dce565b6020604051808303816000875af19250505080156113ef57506040513d601f19601f820116820180604052508101906113ec9190612e4b565b60015b611494576113fb612e85565b806308c379a003611457575061140f612ea7565b8061141a5750611459565b806040517f08c379a000000000000000000000000000000000000000000000000000000000815260040161144e9190611bfb565b60405180910390fd5b505b6040517f08c379a000000000000000000000000000000000000000000000000000000000815260040161148b90612fa9565b60405180910390fd5b63bc197c8160e01b7bffffffffffffffffffffffffffffffffffffffffffffffffffffffff1916817bffffffffffffffffffffffffffffffffffffffffffffffffffffffff19161461151b576040517f08c379a00000000000000000000000000000000000000000000000000000000081526004016115129061303b565b60405180910390fd5b505b505050505050565b60606000600167ffffffffffffffff81111561154457611543611c22565b5b6040519080825280602002602001820160405280156115725781602001602082028036833780820191505090505b509050828160008151811061158a576115896126f2565b5b60200260200101818152505080915050919050565b6115be8473ffffffffffffffffffffffffffffffffffffffff16611946565b1561176e578373ffffffffffffffffffffffffffffffffffffffff1663f23a6e6187878686866040518663ffffffff1660e01b815260040161160495949392919061305b565b6020604051808303816000875af192505050801561164057506040513d601f19601f8201168201806040525081019061163d9190612e4b565b60015b6116e55761164c612e85565b806308c379a0036116a85750611660612ea7565b8061166b57506116aa565b806040517f08c379a000000000000000000000000000000000000000000000000000000000815260040161169f9190611bfb565b60405180910390fd5b505b6040517f08c379a00000000000000000000000000000000000000000000000000000000081526004016116dc90612fa9565b60405180910390fd5b63f23a6e6160e01b7bffffffffffffffffffffffffffffffffffffffffffffffffffffffff1916817bffffffffffffffffffffffffffffffffffffffffffffffffffffffff19161461176c576040517f08c379a00000000000000000000000000000000000000000000000000000000081526004016117639061303b565b60405180910390fd5b505b505050505050565b611784868686868686611969565b600073ffffffffffffffffffffffffffffffffffffffff168573ffffffffffffffffffffffffffffffffffffffff16036118355760005b8351811015611833578281815181106117d7576117d66126f2565b5b6020026020010151600360008684815181106117f6576117f56126f2565b5b60200260200101518152602001908152602001600020600082825461181b9190612c79565b925050819055508061182c90612750565b90506117bb565b505b600073ffffffffffffffffffffffffffffffffffffffff168473ffffffffffffffffffffffffffffffffffffffff160361193e5760005b835181101561193c57600084828151811061188a576118896126f2565b5b6020026020010151905060008483815181106118a9576118a86126f2565b5b602002602001015190506000600360008481526020019081526020016000205490508181101561190e576040517f08c379a000000000000000000000000000000000000000000000000000000000815260040161190590613127565b60405180910390fd5b81810360036000858152602001908152602001600020819055505050508061193590612750565b905061186c565b505b505050505050565b6000808273ffffffffffffffffffffffffffffffffffffffff163b119050919050565b505050505050565b6000604051905090565b600080fd5b600080fd5b600073ffffffffffffffffffffffffffffffffffffffff82169050919050565b60006119b082611985565b9050919050565b6119c0816119a5565b81146119cb57600080fd5b50565b6000813590506119dd816119b7565b92915050565b6000819050919050565b6119f6816119e3565b8114611a0157600080fd5b50565b600081359050611a13816119ed565b92915050565b60008060408385031215611a3057611a2f61197b565b5b6000611a3e858286016119ce565b9250506020611a4f85828601611a04565b9150509250929050565b611a62816119e3565b82525050565b6000602082019050611a7d6000830184611a59565b92915050565b60007fffffffff0000000000000000000000000000000000000000000000000000000082169050919050565b611ab881611a83565b8114611ac357600080fd5b50565b600081359050611ad581611aaf565b92915050565b600060208284031215611af157611af061197b565b5b6000611aff84828501611ac6565b91505092915050565b60008115159050919050565b611b1d81611b08565b82525050565b6000602082019050611b386000830184611b14565b92915050565b600060208284031215611b5457611b5361197b565b5b6000611b6284828501611a04565b91505092915050565b600081519050919050565b600082825260208201905092915050565b60005b83811015611ba5578082015181840152602081019050611b8a565b60008484015250505050565b6000601f19601f8301169050919050565b6000611bcd82611b6b565b611bd78185611b76565b9350611be7818560208601611b87565b611bf081611bb1565b840191505092915050565b60006020820190508181036000830152611c158184611bc2565b905092915050565b600080fd5b7f4e487b7100000000000000000000000000000000000000000000000000000000600052604160045260246000fd5b611c5a82611bb1565b810181811067ffffffffffffffff82111715611c7957611c78611c22565b5b80604052505050565b6000611c8c611971565b9050611c988282611c51565b919050565b600067ffffffffffffffff821115611cb857611cb7611c22565b5b602082029050602081019050919050565b600080fd5b6000611ce1611cdc84611c9d565b611c82565b90508083825260208201905060208402830185811115611d0457611d03611cc9565b5b835b81811015611d2d5780611d198882611a04565b845260208401935050602081019050611d06565b5050509392505050565b600082601f830112611d4c57611d4b611c1d565b5b8135611d5c848260208601611cce565b91505092915050565b600080fd5b600067ffffffffffffffff821115611d8557611d84611c22565b5b611d8e82611bb1565b9050602081019050919050565b82818337600083830152505050565b6000611dbd611db884611d6a565b611c82565b905082815260208101848484011115611dd957611dd8611d65565b5b611de4848285611d9b565b509392505050565b600082601f830112611e0157611e00611c1d565b5b8135611e11848260208601611daa565b91505092915050565b600080600080600060a08688031215611e3657611e3561197b565b5b6000611e44888289016119ce565b9550506020611e55888289016119ce565b945050604086013567ffffffffffffffff811115611e7657611e75611980565b5b611e8288828901611d37565b935050606086013567ffffffffffffffff811115611ea357611ea2611980565b5b611eaf88828901611d37565b925050608086013567ffffffffffffffff811115611ed057611ecf611980565b5b611edc88828901611dec565b9150509295509295909350565b600067ffffffffffffffff821115611f0457611f03611c22565b5b602082029050602081019050919050565b6000611f28611f2384611ee9565b611c82565b90508083825260208201905060208402830185811115611f4b57611f4a611cc9565b5b835b81811015611f745780611f6088826119ce565b845260208401935050602081019050611f4d565b5050509392505050565b600082601f830112611f9357611f92611c1d565b5b8135611fa3848260208601611f15565b91505092915050565b60008060408385031215611fc357611fc261197b565b5b600083013567ffffffffffffffff811115611fe157611fe0611980565b5b611fed85828601611f7e565b925050602083013567ffffffffffffffff81111561200e5761200d611980565b5b61201a85828601611d37565b9150509250929050565b600081519050919050565b600082825260208201905092915050565b6000819050602082019050919050565b612059816119e3565b82525050565b600061206b8383612050565b60208301905092915050565b6000602082019050919050565b600061208f82612024565b612099818561202f565b93506120a483612040565b8060005b838110156120d55781516120bc888261205f565b97506120c783612077565b9250506001810190506120a8565b5085935050505092915050565b600060208201905081810360008301526120fc8184612084565b905092915050565b600067ffffffffffffffff82111561211f5761211e611c22565b5b61212882611bb1565b9050602081019050919050565b600061214861214384612104565b611c82565b90508281526020810184848401111561216457612163611d65565b5b61216f848285611d9b565b509392505050565b600082601f83011261218c5761218b611c1d565b5b813561219c848260208601612135565b91505092915050565b600080604083850312156121bc576121bb61197b565b5b60006121ca85828601611a04565b925050602083013567ffffffffffffffff8111156121eb576121ea611980565b5b6121f785828601612177565b9150509250929050565b61220a816119a5565b82525050565b60006020820190506122256000830184612201565b92915050565b6000602082840312156122415761224061197b565b5b600082013567ffffffffffffffff81111561225f5761225e611980565b5b61226b84828501612177565b91505092915050565b61227d81611b08565b811461228857600080fd5b50565b60008135905061229a81612274565b92915050565b600080604083850312156122b7576122b661197b565b5b60006122c5858286016119ce565b92505060206122d68582860161228b565b9150509250929050565b600080604083850312156122f7576122f661197b565b5b6000612305858286016119ce565b9250506020612316858286016119ce565b9150509250929050565b600080600080600060a0868803121561233c5761233b61197b565b5b600061234a888289016119ce565b955050602061235b888289016119ce565b945050604061236c88828901611a04565b935050606061237d88828901611a04565b925050608086013567ffffffffffffffff81111561239e5761239d611980565b5b6123aa88828901611dec565b9150509295509295909350565b6000602082840312156123cd576123cc61197b565b5b60006123db848285016119ce565b91505092915050565b7f455243313135353a2061646472657373207a65726f206973206e6f742061207660008201527f616c6964206f776e657200000000000000000000000000000000000000000000602082015250565b6000612440602a83611b76565b915061244b826123e4565b604082019050919050565b6000602082019050818103600083015261246f81612433565b9050919050565b600081905092915050565b600061248c82611b6b565b6124968185612476565b93506124a6818560208601611b87565b80840191505092915050565b7f4e487b7100000000000000000000000000000000000000000000000000000000600052602260045260246000fd5b600060028204905060018216806124f957607f821691505b60208210810361250c5761250b6124b2565b5b50919050565b60008190508160005260206000209050919050565b60008154612534816124e1565b61253e8186612476565b94506001821660008114612559576001811461256e576125a1565b60ff19831686528115158202860193506125a1565b61257785612512565b60005b838110156125995781548189015260018201915060208101905061257a565b838801955050505b50505092915050565b60006125b68285612481565b91506125c28284612527565b91508190509392505050565b7f455243313135353a2063616c6c6572206973206e6f7420746f6b656e206f776e60008201527f6572206f7220617070726f766564000000000000000000000000000000000000602082015250565b600061262a602e83611b76565b9150612635826125ce565b604082019050919050565b600060208201905081810360008301526126598161261d565b9050919050565b7f455243313135353a206163636f756e747320616e6420696473206c656e67746860008201527f206d69736d617463680000000000000000000000000000000000000000000000602082015250565b60006126bc602983611b76565b91506126c782612660565b604082019050919050565b600060208201905081810360008301526126eb816126af565b9050919050565b7f4e487b7100000000000000000000000000000000000000000000000000000000600052603260045260246000fd5b7f4e487b7100000000000000000000000000000000000000000000000000000000600052601160045260246000fd5b600061275b826119e3565b91507fffffffffffffffffffffffffffffffffffffffffffffffffffffffffffffffff820361278d5761278c612721565b5b600182019050919050565b60006020601f8301049050919050565b600082821b905092915050565b6000600883026127e57fffffffffffffffffffffffffffffffffffffffffffffffffffffffffffffffff826127a8565b6127ef86836127a8565b95508019841693508086168417925050509392505050565b6000819050919050565b600061282c612827612822846119e3565b612807565b6119e3565b9050919050565b6000819050919050565b61284683612811565b61285a61285282612833565b8484546127b5565b825550505050565b600090565b61286f612862565b61287a81848461283d565b505050565b5b8181101561289e57612893600082612867565b600181019050612880565b5050565b601f8211156128e3576128b481612512565b6128bd84612798565b810160208510156128cc578190505b6128e06128d885612798565b83018261287f565b50505b505050565b600082821c905092915050565b6000612906600019846008026128e8565b1980831691505092915050565b600061291f83836128f5565b9150826002028217905092915050565b61293882611b6b565b67ffffffffffffffff81111561295157612950611c22565b5b61295b82546124e1565b6129668282856128a2565b600060209050601f8311600181146129995760008415612987578287015190505b6129918582612913565b8655506129f9565b601f1984166129a786612512565b60005b828110156129cf578489015182556001820191506020850194506020810190506129aa565b868310156129ec57848901516129e8601f8916826128f5565b8355505b6001600288020188555050505b505050505050565b6000604082019050612a166000830185611a59565b8181036020830152612a288184611bc2565b90509392505050565b7f4f776e61626c653a206e6577206f776e657220697320746865207a65726f206160008201527f6464726573730000000000000000000000000000000000000000000000000000602082015250565b6000612a8d602683611b76565b9150612a9882612a31565b604082019050919050565b60006020820190508181036000830152612abc81612a80565b9050919050565b7f455243313135353a2069647320616e6420616d6f756e7473206c656e6774682060008201527f6d69736d61746368000000000000000000000000000000000000000000000000602082015250565b6000612b1f602883611b76565b9150612b2a82612ac3565b604082019050919050565b60006020820190508181036000830152612b4e81612b12565b9050919050565b7f455243313135353a207472616e7366657220746f20746865207a65726f20616460008201527f6472657373000000000000000000000000000000000000000000000000000000602082015250565b6000612bb1602583611b76565b9150612bbc82612b55565b604082019050919050565b60006020820190508181036000830152612be081612ba4565b9050919050565b7f455243313135353a20696e73756666696369656e742062616c616e636520666f60008201527f72207472616e7366657200000000000000000000000000000000000000000000602082015250565b6000612c43602a83611b76565b9150612c4e82612be7565b604082019050919050565b60006020820190508181036000830152612c7281612c36565b9050919050565b6000612c84826119e3565b9150612c8f836119e3565b9250828201905080821115612ca757612ca6612721565b5b92915050565b60006040820190508181036000830152612cc78185612084565b90508181036020830152612cdb8184612084565b90509392505050565b7f4f776e61626c653a2063616c6c6572206973206e6f7420746865206f776e6572600082015250565b6000612d1a602083611b76565b9150612d2582612ce4565b602082019050919050565b60006020820190508181036000830152612d4981612d0d565b9050919050565b6000604082019050612d656000830185611a59565b612d726020830184611a59565b9392505050565b600081519050919050565b600082825260208201905092915050565b6000612da082612d79565b612daa8185612d84565b9350612dba818560208601611b87565b612dc381611bb1565b840191505092915050565b600060a082019050612de36000830188612201565b612df06020830187612201565b8181036040830152612e028186612084565b90508181036060830152612e168185612084565b90508181036080830152612e2a8184612d95565b90509695505050505050565b600081519050612e4581611aaf565b92915050565b600060208284031215612e6157612e6061197b565b5b6000612e6f84828501612e36565b91505092915050565b60008160e01c9050919050565b600060033d1115612ea45760046000803e612ea1600051612e78565b90505b90565b600060443d10612f3457612eb9611971565b60043d036004823e80513d602482011167ffffffffffffffff82111715612ee1575050612f34565b808201805167ffffffffffffffff811115612eff5750505050612f34565b80602083010160043d038501811115612f1c575050505050612f34565b612f2b82602001850186611c51565b82955050505050505b90565b7f455243313135353a207472616e7366657220746f206e6f6e2d4552433131353560008201527f526563656976657220696d706c656d656e746572000000000000000000000000602082015250565b6000612f93603483611b76565b9150612f9e82612f37565b604082019050919050565b60006020820190508181036000830152612fc281612f86565b9050919050565b7f455243313135353a204552433131353552656365697665722072656a6563746560008201527f6420746f6b656e73000000000000000000000000000000000000000000000000602082015250565b6000613025602883611b76565b915061303082612fc9565b604082019050919050565b6000602082019050818103600083015261305481613018565b9050919050565b600060a0820190506130706000830188612201565b61307d6020830187612201565b61308a6040830186611a59565b6130976060830185611a59565b81810360808301526130a98184612d95565b90509695505050505050565b7f455243313135353a206275726e20616d6f756e74206578636565647320746f7460008201527f616c537570706c79000000000000000000000000000000000000000000000000602082015250565b6000613111602883611b76565b915061311c826130b5565b604082019050919050565b6000602082019050818103600083015261314081613104565b905091905056fea2646970667358221220e904ae61ea150f5f3e4a7fbeab56e837af5394ba935af14976f78861a78fa3ee64736f6c63430008110033",
  "linkReferences": {},
  "deployedLinkReferences": {}
}